{
  "contractName": "Coinflip",
  "abi": [
    {
      "constant": true,
      "inputs": [],
      "name": "latestServedId",
      "outputs": [
        {
          "name": "",
          "type": "bytes32"
        }
      ],
      "payable": false,
      "stateMutability": "view",
      "type": "function"
    },
    {
      "constant": true,
      "inputs": [],
      "name": "owner",
      "outputs": [
        {
          "name": "",
          "type": "address"
        }
      ],
      "payable": false,
      "stateMutability": "view",
      "type": "function"
    },
    {
      "constant": true,
      "inputs": [],
      "name": "balance",
      "outputs": [
        {
          "name": "",
          "type": "uint256"
        }
      ],
      "payable": false,
      "stateMutability": "view",
      "type": "function"
    },
    {
      "constant": true,
      "inputs": [],
      "name": "latestNumber",
      "outputs": [
        {
          "name": "",
          "type": "uint256"
        }
      ],
      "payable": false,
      "stateMutability": "view",
      "type": "function"
    },
    {
      "inputs": [],
      "payable": false,
      "stateMutability": "nonpayable",
      "type": "constructor"
    },
    {
      "anonymous": false,
      "inputs": [
        {
          "indexed": false,
          "name": "win",
          "type": "bool"
        },
        {
          "indexed": false,
          "name": "player",
          "type": "address"
        },
        {
          "indexed": false,
          "name": "amount",
          "type": "uint256"
        },
        {
          "indexed": false,
          "name": "blockNr",
          "type": "uint256"
        },
        {
          "indexed": false,
          "name": "head",
          "type": "uint256"
        }
      ],
      "name": "ResultEvent",
      "type": "event"
    },
    {
      "anonymous": false,
      "inputs": [
        {
          "indexed": false,
          "name": "randomNumber",
          "type": "uint256"
        }
      ],
      "name": "RandomNumberProduced",
      "type": "event"
    },
    {
      "anonymous": false,
      "inputs": [
        {
          "indexed": false,
          "name": "strin",
          "type": "string"
        }
      ],
      "name": "LogNewProvableQuery",
      "type": "event"
    },
    {
      "constant": false,
      "inputs": [
        {
          "name": "_myid",
          "type": "bytes32"
        },
        {
          "name": "_result",
          "type": "string"
        }
      ],
      "name": "__callback",
      "outputs": [],
      "payable": false,
      "stateMutability": "nonpayable",
      "type": "function"
    },
    {
      "constant": false,
      "inputs": [
        {
          "name": "_myid",
          "type": "bytes32"
        },
        {
          "name": "_result",
          "type": "string"
        },
        {
          "name": "_proof",
          "type": "bytes"
        }
      ],
      "name": "__callback",
      "outputs": [],
      "payable": false,
      "stateMutability": "nonpayable",
      "type": "function"
    },
    {
      "constant": false,
      "inputs": [
        {
          "name": "sender",
          "type": "address"
        },
        {
          "name": "head",
          "type": "bool"
        },
        {
          "name": "value",
          "type": "uint256"
        },
        {
          "name": "won",
          "type": "bool"
        },
        {
          "name": "blockNr",
          "type": "uint256"
        }
      ],
      "name": "update",
      "outputs": [],
      "payable": true,
      "stateMutability": "payable",
      "type": "function"
    },
    {
      "constant": true,
      "inputs": [],
      "name": "getBalance",
      "outputs": [
        {
          "name": "amount",
          "type": "uint256"
        }
      ],
      "payable": false,
      "stateMutability": "view",
      "type": "function"
    },
    {
      "constant": false,
      "inputs": [
        {
          "name": "head",
          "type": "bool"
        }
      ],
      "name": "bet",
      "outputs": [],
      "payable": true,
      "stateMutability": "payable",
      "type": "function"
    },
    {
      "constant": true,
      "inputs": [],
      "name": "lookUp",
      "outputs": [
        {
          "name": "result",
          "type": "bool"
        },
        {
          "name": "amount",
          "type": "uint256"
        },
        {
          "name": "blockNr",
          "type": "uint256"
        },
        {
          "name": "head",
          "type": "bool"
        }
      ],
      "payable": false,
      "stateMutability": "view",
      "type": "function"
    },
    {
      "constant": false,
      "inputs": [],
      "name": "fillContract",
      "outputs": [],
      "payable": true,
      "stateMutability": "payable",
      "type": "function"
    }
  ],
  "bytecode": "0x6080604052600060065534801561001557600080fd5b5033600560006101000a81548173ffffffffffffffffffffffffffffffffffffffff021916908373ffffffffffffffffffffffffffffffffffffffff16021790555061310c806100666000396000f3fe60806040526004361061009c5760003560e01c806365f8f58a1161006457806365f8f58a146103415780637b5b86541461036c5780638da5cb5b146103b4578063b69ef8a81461040b578063c0d5f0b014610436578063dc34b0aa146104a65761009c565b806312065fe0146100a1578063215ac4be146100cc57806327dc297e146100d657806338bbfa50146101a8578063523afb0d14610311575b600080fd5b3480156100ad57600080fd5b506100b66104d1565b6040518082815260200191505060405180910390f35b6100d46104f0565b005b3480156100e257600080fd5b506101a6600480360360408110156100f957600080fd5b81019080803590602001909291908035906020019064010000000081111561012057600080fd5b82018360208201111561013257600080fd5b8035906020019184600183028401116401000000008311171561015457600080fd5b91908080601f016020809104026020016040519081016040528093929190818152602001838380828437600081840152601f19601f82011690508083019250505050505050919291929050505061055c565b005b3480156101b457600080fd5b5061030f600480360360608110156101cb57600080fd5b8101908080359060200190929190803590602001906401000000008111156101f257600080fd5b82018360208201111561020457600080fd5b8035906020019184600183028401116401000000008311171561022657600080fd5b91908080601f016020809104026020016040519081016040528093929190818152602001838380828437600081840152601f19601f8201169050808301925050505050505091929192908035906020019064010000000081111561028957600080fd5b82018360208201111561029b57600080fd5b803590602001918460018302840111640100000000831117156102bd57600080fd5b91908080601f016020809104026020016040519081016040528093929190818152602001838380828437600081840152601f19601f82011690508083019250505050505050919291929050505061059f565b005b61033f6004803603602081101561032757600080fd5b81019080803515159060200190929190505050610cff565b005b34801561034d57600080fd5b50610356610d91565b6040518082815260200191505060405180910390f35b34801561037857600080fd5b50610381610d97565b60405180851515151581526020018481526020018381526020018215151515815260200194505050505060405180910390f35b3480156103c057600080fd5b506103c9610e5e565b604051808273ffffffffffffffffffffffffffffffffffffffff1673ffffffffffffffffffffffffffffffffffffffff16815260200191505060405180910390f35b34801561041757600080fd5b50610420610e84565b6040518082815260200191505060405180910390f35b6104a4600480360360a081101561044c57600080fd5b81019080803573ffffffffffffffffffffffffffffffffffffffff1690602001909291908035151590602001909291908035906020019092919080351515906020019092919080359060200190929190505050610e8a565b005b3480156104b257600080fd5b506104bb61107d565b6040518082815260200191505060405180910390f35b60003073ffffffffffffffffffffffffffffffffffffffff1631905090565b600560009054906101000a900473ffffffffffffffffffffffffffffffffffffffff1673ffffffffffffffffffffffffffffffffffffffff163373ffffffffffffffffffffffffffffffffffffffff161461054a57600080fd5b34600660008282540192505081905550565b61059b828260006040519080825280601f01601f1916602001820160405280156105955781602001600182028038833980820191505090505b5061059f565b5050565b6105a7611083565b73ffffffffffffffffffffffffffffffffffffffff163373ffffffffffffffffffffffffffffffffffffffff16146105de57600080fd5b60006002836040516020018082805190602001908083835b6020831061061957805182526020820191506020810190506020830392506105f6565b6001836020036101000a0380198251168184511680821785525050505050509050019150506040516020818303038152906040528051906020012060001c8161065e57fe5b06905080600a819055506001600a5414801561069a57506009600085815260200190815260200160002060000160149054906101000a900460ff165b806106d457506000600a541480156106d357506009600085815260200190815260200160002060000160149054906101000a900460ff16155b5b15610a39576106e1612f38565b60096000868152602001908152602001600020600101604051806080016040529081600082015481526020016001820160009054906101000a900460ff16151515158152602001600282015481526020016003820160009054906101000a900460ff1615151515815250509050600181602001901515908115158152505060006009600087815260200190815260200160002060000160009054906101000a900473ffffffffffffffffffffffffffffffffffffffff16905081600860008373ffffffffffffffffffffffffffffffffffffffff1673ffffffffffffffffffffffffffffffffffffffff1681526020019081526020016000206000820151816000015560208201518160010160006101000a81548160ff0219169083151502179055506040820151816002015560608201518160030160006101000a81548160ff021916908315150217905550905050610839612f38565b60096000888152602001908152602001600020600101604051806080016040529081600082015481526020016001820160009054906101000a900460ff16151515158152602001600282015481526020016003820160009054906101000a900460ff1615151515815250509050600060028260000151029050806006540360068190555060096000898152602001908152602001600020600080820160006101000a81549073ffffffffffffffffffffffffffffffffffffffff02191690556000820160146101000a81549060ff0219169055600182016000808201600090556001820160006101000a81549060ff021916905560028201600090556003820160006101000a81549060ff021916905550505050876007819055503373ffffffffffffffffffffffffffffffffffffffff166108fc829081150290604051600060405180830381858888f1935050505015801561099a573d6000803e3d6000fd5b507f5f86b3a1f02fc946b2e764354bda177dd6eec735045fc29c6487e1c4a6135df784602001518486600001518760400151600a5460405180861515151581526020018573ffffffffffffffffffffffffffffffffffffffff1673ffffffffffffffffffffffffffffffffffffffff1681526020018481526020018381526020018281526020019550505050505060405180910390a150505050610cc0565b610a41612f38565b60096000868152602001908152602001600020600101604051806080016040529081600082015481526020016001820160009054906101000a900460ff16151515158152602001600282015481526020016003820160009054906101000a900460ff1615151515815250509050600081602001901515908115158152505060006009600087815260200190815260200160002060000160009054906101000a900473ffffffffffffffffffffffffffffffffffffffff16905081600860008373ffffffffffffffffffffffffffffffffffffffff1673ffffffffffffffffffffffffffffffffffffffff1681526020019081526020016000206000820151816000015560208201518160010160006101000a81548160ff0219169083151502179055506040820151816002015560608201518160030160006101000a81548160ff0219169083151502179055509050508560078190555060096000878152602001908152602001600020600080820160006101000a81549073ffffffffffffffffffffffffffffffffffffffff02191690556000820160146101000a81549060ff0219169055600182016000808201600090556001820160006101000a81549060ff021916905560028201600090556003820160006101000a81549060ff0219169055505050507f5f86b3a1f02fc946b2e764354bda177dd6eec735045fc29c6487e1c4a6135df782602001518284600001518560400151600a5460405180861515151581526020018573ffffffffffffffffffffffffffffffffffffffff1673ffffffffffffffffffffffffffffffffffffffff1681526020018481526020018381526020018281526020019550505050505060405180910390a150505b7f2afa5d23ecad54f60e9da14247b6a99d0a9ad4cf4dd327a1dbe93d4dfafcd099600a546040518082815260200191505060405180910390a150505050565b66038d7ea4c6800080341015610d1457600080fd5b346006541015610d6f576040517f08c379a000000000000000000000000000000000000000000000000000000000815260040180806020018281038252602b8152602001806130b6602b913960400191505060405180910390fd5b34600660008282540192505081905550610d8d338334600043610e8a565b5050565b60075481565b600080600080610da5612f38565b600860003373ffffffffffffffffffffffffffffffffffffffff1673ffffffffffffffffffffffffffffffffffffffff168152602001908152602001600020604051806080016040529081600082015481526020016001820160009054906101000a900460ff16151515158152602001600282015481526020016003820160009054906101000a900460ff1615151515815250509050806020015181600001518260400151836060015194509450945094505090919293565b600560009054906101000a900473ffffffffffffffffffffffffffffffffffffffff1681565b60065481565b6000809050600062030d409050610e9f612f38565b858160000181815250508481602001901515908115158152505083816040018181525050610ecb612f64565b8781602001901515908115158152505088816000019073ffffffffffffffffffffffffffffffffffffffff16908173ffffffffffffffffffffffffffffffffffffffff16815250508181604001819052506000610f2a856001866113a0565b9050816009600083815260200190815260200160002060008201518160000160006101000a81548173ffffffffffffffffffffffffffffffffffffffff021916908373ffffffffffffffffffffffffffffffffffffffff16021790555060208201518160000160146101000a81548160ff0219169083151502179055506040820151816001016000820151816000015560208201518160010160006101000a81548160ff0219169083151502179055506040820151816002015560608201518160030160006101000a81548160ff02191690831515021790555050509050507fc4dc360d0a9c0677a3379ae0a3d81e887f761e65fdf3d7e00859d1bcd3c4738960405180806020018281038252601a8152602001807f202d2d2057616974696e6720666f72207265706c79202e2e2e2000000000000081525060200191505060405180910390a150505050505050505050565b600a5481565b60008073ffffffffffffffffffffffffffffffffffffffff16600160009054906101000a900473ffffffffffffffffffffffffffffffffffffffff1673ffffffffffffffffffffffffffffffffffffffff16148061110b57506000611109600160009054906101000a900473ffffffffffffffffffffffffffffffffffffffff1661193b565b145b1561111c5761111a6000611946565b505b600160009054906101000a900473ffffffffffffffffffffffffffffffffffffffff1673ffffffffffffffffffffffffffffffffffffffff166338cc48316040518163ffffffff1660e01b8152600401602060405180830381600087803b15801561118657600080fd5b505af115801561119a573d6000803e3d6000fd5b505050506040513d60208110156111b057600080fd5b810190808051906020019092919050505073ffffffffffffffffffffffffffffffffffffffff166000809054906101000a900473ffffffffffffffffffffffffffffffffffffffff1673ffffffffffffffffffffffffffffffffffffffff16146112f957600160009054906101000a900473ffffffffffffffffffffffffffffffffffffffff1673ffffffffffffffffffffffffffffffffffffffff166338cc48316040518163ffffffff1660e01b8152600401602060405180830381600087803b15801561127e57600080fd5b505af1158015611292573d6000803e3d6000fd5b505050506040513d60208110156112a857600080fd5b81019080805190602001909291905050506000806101000a81548173ffffffffffffffffffffffffffffffffffffffff021916908373ffffffffffffffffffffffffffffffffffffffff1602179055505b6000809054906101000a900473ffffffffffffffffffffffffffffffffffffffff1673ffffffffffffffffffffffffffffffffffffffff1663c281d19e6040518163ffffffff1660e01b815260040160206040518083038186803b15801561136057600080fd5b505afa158015611374573d6000803e3d6000fd5b505050506040513d602081101561138a57600080fd5b8101908080519060200190929190505050905090565b600080831180156113b2575060208311155b6113bb57600080fd5b600a84029350606060016040519080825280601f01601f1916602001820160405280156113f75781602001600182028038833980820191505090505b5090508360f81b8160008151811061140b57fe5b60200101907effffffffffffffffffffffffffffffffffffffffffffffffffffffffffffff1916908160001a905350606060206040519080825280601f01601f1916602001820160405280156114705781602001600182028038833980820191505090505b509050606060206040519080825280601f01601f1916602001820160405280156114a95781602001600182028038833980820191505090505b50905060006114b6611957565b905060208352424118600143034018602084015260208252806020830152606060206040519080825280601f01601f19166020018201604052801561150a5781602001600182028038833980820191505090505b509050886020820152606060086040519080825280601f01601f1916602001820160405280156115495781602001600182028038833980820191505090505b50905061155c8260186008846000611c74565b50611565612fa3565b604051806080016040528087815260200188815260200186815260200184815250905060006115ca6040518060400160405280600681526020017f72616e646f6d0000000000000000000000000000000000000000000000000000815250838c611cd3565b9050606060086040519080825280601f01601f1916602001820160405280156116025781602001600182028038833980820191505090505b50905060208401517f0100000000000000000000000000000000000000000000000000000000000000810460278301537e01000000000000000000000000000000000000000000000000000000000000810460268301537d010000000000000000000000000000000000000000000000000000000000810460258301537c0100000000000000000000000000000000000000000000000000000000810460248301537b01000000000000000000000000000000000000000000000000000000810460238301537a01000000000000000000000000000000000000000000000000000081046022830153790100000000000000000000000000000000000000000000000000810460218301537801000000000000000000000000000000000000000000000000810460208301535061192882828560016004811061174157fe5b602002015160028760006004811061175557fe5b60200201516040518082805190602001908083835b6020831061178d578051825260208201915060208101905060208303925061176a565b6001836020036101000a038019825116818451168082178552505050505050905001915050602060405180830381855afa1580156117cf573d6000803e3d6000fd5b5050506040513d60208110156117e457600080fd5b81019080805190602001909291905050508760026004811061180257fe5b60200201516040516020018085805190602001908083835b6020831061183d578051825260208201915060208101905060208303925061181a565b6001836020036101000a03801982511681845116808217855250505050505090500184805190602001908083835b6020831061188e578051825260208201915060208101905060208303925061186b565b6001836020036101000a03801982511681845116808217855250505050505090500183815260200182805190602001908083835b602083106118e557805182526020820191506020810190506020830392506118c2565b6001836020036101000a03801982511681845116808217855250505050505090500194505050505060405160208183030381529060405280519060200120612040565b8199505050505050505050509392505050565b6000813b9050919050565b600061195061205c565b9050919050565b60008073ffffffffffffffffffffffffffffffffffffffff16600160009054906101000a900473ffffffffffffffffffffffffffffffffffffffff1673ffffffffffffffffffffffffffffffffffffffff1614806119df575060006119dd600160009054906101000a900473ffffffffffffffffffffffffffffffffffffffff1661193b565b145b156119f0576119ee6000611946565b505b600160009054906101000a900473ffffffffffffffffffffffffffffffffffffffff1673ffffffffffffffffffffffffffffffffffffffff166338cc48316040518163ffffffff1660e01b8152600401602060405180830381600087803b158015611a5a57600080fd5b505af1158015611a6e573d6000803e3d6000fd5b505050506040513d6020811015611a8457600080fd5b810190808051906020019092919050505073ffffffffffffffffffffffffffffffffffffffff166000809054906101000a900473ffffffffffffffffffffffffffffffffffffffff1673ffffffffffffffffffffffffffffffffffffffff1614611bcd57600160009054906101000a900473ffffffffffffffffffffffffffffffffffffffff1673ffffffffffffffffffffffffffffffffffffffff166338cc48316040518163ffffffff1660e01b8152600401602060405180830381600087803b158015611b5257600080fd5b505af1158015611b66573d6000803e3d6000fd5b505050506040513d6020811015611b7c57600080fd5b81019080805190602001909291905050506000806101000a81548173ffffffffffffffffffffffffffffffffffffffff021916908373ffffffffffffffffffffffffffffffffffffffff1602179055505b6000809054906101000a900473ffffffffffffffffffffffffffffffffffffffff1673ffffffffffffffffffffffffffffffffffffffff1663abaa5f3e6040518163ffffffff1660e01b815260040160206040518083038186803b158015611c3457600080fd5b505afa158015611c48573d6000803e3d6000fd5b505050506040513d6020811015611c5e57600080fd5b8101908080519060200190929190505050905090565b6060600082850190508084511015611c8b57600080fd5b600086602001905060008460200190505b868860200101821015611cc45781890151808288015250602082019150602081019050611c9c565b85935050505095945050505050565b60008073ffffffffffffffffffffffffffffffffffffffff16600160009054906101000a900473ffffffffffffffffffffffffffffffffffffffff1673ffffffffffffffffffffffffffffffffffffffff161480611d5b57506000611d59600160009054906101000a900473ffffffffffffffffffffffffffffffffffffffff1661193b565b145b15611d6c57611d6a6000611946565b505b600160009054906101000a900473ffffffffffffffffffffffffffffffffffffffff1673ffffffffffffffffffffffffffffffffffffffff166338cc48316040518163ffffffff1660e01b8152600401602060405180830381600087803b158015611dd657600080fd5b505af1158015611dea573d6000803e3d6000fd5b505050506040513d6020811015611e0057600080fd5b810190808051906020019092919050505073ffffffffffffffffffffffffffffffffffffffff166000809054906101000a900473ffffffffffffffffffffffffffffffffffffffff1673ffffffffffffffffffffffffffffffffffffffff1614611f4957600160009054906101000a900473ffffffffffffffffffffffffffffffffffffffff1673ffffffffffffffffffffffffffffffffffffffff166338cc48316040518163ffffffff1660e01b8152600401602060405180830381600087803b158015611ece57600080fd5b505af1158015611ee2573d6000803e3d6000fd5b505050506040513d6020811015611ef857600080fd5b81019080805190602001909291905050506000806101000a81548173ffffffffffffffffffffffffffffffffffffffff021916908373ffffffffffffffffffffffffffffffffffffffff1602179055505b60606004604051908082528060200260200182016040528015611f8057816020015b6060815260200190600190039081611f6b5790505b50905083600060048110611f9057fe5b602002015181600081518110611fa257fe5b602002602001018190525083600160048110611fba57fe5b602002015181600181518110611fcc57fe5b602002602001018190525083600260048110611fe457fe5b602002015181600281518110611ff657fe5b60200260200101819052508360036004811061200e57fe5b60200201518160038151811061202057fe5b60200260200101819052506120368582856125b3565b9150509392505050565b8060036000848152602001908152602001600020819055505050565b60008061207c731d3b2638a7cc9f2cb3d298a3da7a90b67e5506ed61193b565b111561211e57731d3b2638a7cc9f2cb3d298a3da7a90b67e5506ed600160006101000a81548173ffffffffffffffffffffffffffffffffffffffff021916908373ffffffffffffffffffffffffffffffffffffffff1602179055506121156040518060400160405280600b81526020017f6574685f6d61696e6e6574000000000000000000000000000000000000000000815250612b15565b600190506125b0565b600061213d73c03a2615d5efaf5f49f60b7bb6583eaec212fdf161193b565b11156121df5773c03a2615d5efaf5f49f60b7bb6583eaec212fdf1600160006101000a81548173ffffffffffffffffffffffffffffffffffffffff021916908373ffffffffffffffffffffffffffffffffffffffff1602179055506121d66040518060400160405280600c81526020017f6574685f726f707374656e330000000000000000000000000000000000000000815250612b15565b600190506125b0565b60006121fe73b7a07bcf2ba2f2703b24c0691b5278999c59ac7e61193b565b11156122a05773b7a07bcf2ba2f2703b24c0691b5278999c59ac7e600160006101000a81548173ffffffffffffffffffffffffffffffffffffffff021916908373ffffffffffffffffffffffffffffffffffffffff1602179055506122976040518060400160405280600981526020017f6574685f6b6f76616e0000000000000000000000000000000000000000000000815250612b15565b600190506125b0565b60006122bf73146500cfd35b22e4a392fe0adc06de1a1368ed4861193b565b11156123615773146500cfd35b22e4a392fe0adc06de1a1368ed48600160006101000a81548173ffffffffffffffffffffffffffffffffffffffff021916908373ffffffffffffffffffffffffffffffffffffffff1602179055506123586040518060400160405280600b81526020017f6574685f72696e6b656279000000000000000000000000000000000000000000815250612b15565b600190506125b0565b600061238073a2998efd205fb9d4b4963afb70778d6354ad3a4161193b565b11156124225773a2998efd205fb9d4b4963afb70778d6354ad3a41600160006101000a81548173ffffffffffffffffffffffffffffffffffffffff021916908373ffffffffffffffffffffffffffffffffffffffff1602179055506124196040518060400160405280600a81526020017f6574685f676f65726c6900000000000000000000000000000000000000000000815250612b15565b600190506125b0565b6000612441736f485c8bf6fc43ea212e93bbf8ce046c7f1cb47561193b565b11156124a557736f485c8bf6fc43ea212e93bbf8ce046c7f1cb475600160006101000a81548173ffffffffffffffffffffffffffffffffffffffff021916908373ffffffffffffffffffffffffffffffffffffffff160217905550600190506125b0565b60006124c47320e12a1f859b3feae5fb2a0a32c18f5a65555bbf61193b565b1115612528577320e12a1f859b3feae5fb2a0a32c18f5a65555bbf600160006101000a81548173ffffffffffffffffffffffffffffffffffffffff021916908373ffffffffffffffffffffffffffffffffffffffff160217905550600190506125b0565b60006125477351efaf4c8b3c9afbd5ab9f4bbc82784ab6ef8faa61193b565b11156125ab577351efaf4c8b3c9afbd5ab9f4bbc82784ab6ef8faa600160006101000a81548173ffffffffffffffffffffffffffffffffffffffff021916908373ffffffffffffffffffffffffffffffffffffffff160217905550600190506125b0565b600090505b90565b60008073ffffffffffffffffffffffffffffffffffffffff16600160009054906101000a900473ffffffffffffffffffffffffffffffffffffffff1673ffffffffffffffffffffffffffffffffffffffff16148061263b57506000612639600160009054906101000a900473ffffffffffffffffffffffffffffffffffffffff1661193b565b145b1561264c5761264a6000611946565b505b600160009054906101000a900473ffffffffffffffffffffffffffffffffffffffff1673ffffffffffffffffffffffffffffffffffffffff166338cc48316040518163ffffffff1660e01b8152600401602060405180830381600087803b1580156126b657600080fd5b505af11580156126ca573d6000803e3d6000fd5b505050506040513d60208110156126e057600080fd5b810190808051906020019092919050505073ffffffffffffffffffffffffffffffffffffffff166000809054906101000a900473ffffffffffffffffffffffffffffffffffffffff1673ffffffffffffffffffffffffffffffffffffffff161461282957600160009054906101000a900473ffffffffffffffffffffffffffffffffffffffff1673ffffffffffffffffffffffffffffffffffffffff166338cc48316040518163ffffffff1660e01b8152600401602060405180830381600087803b1580156127ae57600080fd5b505af11580156127c2573d6000803e3d6000fd5b505050506040513d60208110156127d857600080fd5b81019080805190602001909291905050506000806101000a81548173ffffffffffffffffffffffffffffffffffffffff021916908373ffffffffffffffffffffffffffffffffffffffff1602179055505b60008060009054906101000a900473ffffffffffffffffffffffffffffffffffffffff1673ffffffffffffffffffffffffffffffffffffffff16632ef3accc86856040518363ffffffff1660e01b81526004018080602001838152602001828103825284818151815260200191508051906020019080838360005b838110156128bf5780820151818401526020810190506128a4565b50505050905090810190601f1680156128ec5780820380516001836020036101000a031916815260200191505b509350505050602060405180830381600087803b15801561290c57600080fd5b505af1158015612920573d6000803e3d6000fd5b505050506040513d602081101561293657600080fd5b81019080805190602001909291905050509050823a02670de0b6b3a764000001811115612969576000801b915050612b0e565b606061297485612b2f565b90506000809054906101000a900473ffffffffffffffffffffffffffffffffffffffff1673ffffffffffffffffffffffffffffffffffffffff1663c55c1cb68360008985896040518663ffffffff1660e01b8152600401808581526020018060200180602001848152602001838103835286818151815260200191508051906020019080838360005b83811015612a185780820151818401526020810190506129fd565b50505050905090810190601f168015612a455780820380516001836020036101000a031916815260200191505b50838103825285818151815260200191508051906020019080838360005b83811015612a7e578082015181840152602081019050612a63565b50505050905090810190601f168015612aab5780820380516001836020036101000a031916815260200191505b5096505050505050506020604051808303818588803b158015612acd57600080fd5b505af1158015612ae1573d6000803e3d6000fd5b50505050506040513d6020811015612af857600080fd5b8101908080519060200190929190505050925050505b9392505050565b8060029080519060200190612b2b929190612fca565b5050565b6060612b39612baf565b612b4161304a565b612b4d81610400612bbb565b612b5681612c05565b60008090505b8351811015612b9857612b8b848281518110612b7457fe5b602002602001015183612c1390919063ffffffff16565b8080600101915050612b5c565b50612ba281612c38565b8060000151915050919050565b60405180590338823950565b6000819050600060208281612bcc57fe5b0614612be55760208181612bdc57fe5b06602003810190505b808360200181815250506040518084526000815281810160405250505050565b612c10816004612c46565b50565b612c208260028351612c67565b612c338183612da790919063ffffffff16565b505050565b612c43816007612c46565b50565b612c63601f60058360ff16901b1783612e5290919063ffffffff16565b5050565b60178111612c9357612c8e8160058460ff16901b60ff161784612e5290919063ffffffff16565b612da2565b60ff8111612cd457612cb8601860058460ff16901b1784612e5290919063ffffffff16565b612cce81600185612e929092919063ffffffff16565b50612da1565b61ffff8111612d1657612cfa601960058460ff16901b1784612e5290919063ffffffff16565b612d1081600285612e929092919063ffffffff16565b50612da0565b63ffffffff8111612d5a57612d3e601a60058460ff16901b1784612e5290919063ffffffff16565b612d5481600485612e929092919063ffffffff16565b50612d9f565b67ffffffffffffffff8111612d9e57612d86601b60058460ff16901b1784612e5290919063ffffffff16565b612d9c81600885612e929092919063ffffffff16565b505b5b5b5b5b505050565b612daf61304a565b82602001518360000151518351011115612ddf57612dde836002612dd886602001518651612ef9565b02612f15565b5b60008060008451905085518051602081830101945086518101825260208701935050505b60208110612e265781518352602083019250602082019150602081039050612e03565b60006001826020036101000a039050801983511681855116818117865250508694505050505092915050565b81602001516001836000015151011115612e7857612e77826002846020015102612f15565b5b815180516020818301018381536001820183525050505050565b612e9a61304a565b836020015184600001515183011115612ec857612ec7846002612ec1876020015186612ef9565b02612f15565b5b60006001836101000a0390508451805184818301018684198251161781528582018352505050849150509392505050565b600081831115612f0b57829050612f0f565b8190505b92915050565b606082600001519050612f288383612bbb565b612f328382612da7565b50505050565b604051806080016040528060008152602001600015158152602001600081526020016000151581525090565b6040518060c00160405280600073ffffffffffffffffffffffffffffffffffffffff168152602001600015158152602001612f9d613064565b81525090565b60405180608001604052806004905b6060815260200190600190039081612fb25790505090565b828054600181600116156101000203166002900490600052602060002090601f016020900481019282601f1061300b57805160ff1916838001178555613039565b82800160010185558215613039579182015b8281111561303857825182559160200191906001019061301d565b5b5090506130469190613090565b5090565b604051806040016040528060608152602001600081525090565b604051806080016040528060008152602001600015158152602001600081526020016000151581525090565b6130b291905b808211156130ae576000816000905550600101613096565b5090565b9056fe4e6f7420656e6f7567682045544820696e20636f6e747261637420746f206d616b65207468617420626574a165627a7a723058207917977a1dfcf5311d8b837e68c2b779a241017dc3a82757c5098bb84ff808760029",
  "source": "//Made by Mislav\r\nimport \"./provableAPI.sol\";\r\n\r\npragma solidity 0.5.8;\r\n\r\ncontract Coinflip is usingProvable{\r\n\r\n  struct Result {\r\n    uint amount;\r\n    bool won;\r\n    uint256 blockNr;\r\n    bool head;\r\n  }\r\n\r\n  struct Bet{\r\n    address owner;\r\n    bool bet;\r\n    Result result;\r\n  }\r\n\r\n  address public owner;\r\n  uint public balance = 0;\r\n  bytes32 public latestServedId;\r\n\r\n  mapping (address => Result) results;\r\n  mapping (bytes32 => Bet) currentGames;\r\n\r\n  event ResultEvent(bool win, address player, uint amount, uint256 blockNr, uint head);\r\n  event RandomNumberProduced(uint256 randomNumber);\r\n  event LogNewProvableQuery(string strin);\r\n\r\n  uint256 constant NUM_OF_RANDOM_BYTES = 1;\r\n  uint256 public latestNumber;\r\n\r\n  function __callback(bytes32 _myid, string memory _result, bytes memory _proof) public{\r\n    require (msg.sender == provable_cbAddress());\r\n\r\n    uint256 randomNumber = uint256(keccak256(abi.encodePacked(_result))) % 2;\r\n    latestNumber = randomNumber;\r\n    //check if the player with queryId = _myid wron\r\n    if(((latestNumber == 1) && currentGames[_myid].bet)||((latestNumber == 0) && !currentGames[_myid].bet)){\r\n      //if won\r\n      //put result in archive\r\n      Result memory newResult;\r\n      newResult = currentGames[_myid].result;\r\n      newResult.won = true;\r\n      address player = currentGames[_myid].owner;\r\n      results[player] = newResult;\r\n\r\n      //send money\r\n      Result memory r = currentGames[_myid].result;\r\n      uint toTransfer = (r.amount)*2;\r\n      balance = balance - toTransfer;\r\n      //delete it from currentGames\r\n      delete currentGames[_myid];\r\n      latestServedId = _myid;\r\n      msg.sender.transfer(toTransfer);\r\n      emit ResultEvent(newResult.won, player, newResult.amount, newResult.blockNr, latestNumber);\r\n\r\n    }else{\r\n      //if lost\r\n      //put result in archive\r\n      Result memory newResult;\r\n      newResult = currentGames[_myid].result;\r\n      newResult.won = false;\r\n      address player = currentGames[_myid].owner;\r\n      results[player] = newResult;\r\n      latestServedId = _myid;\r\n      //delete it from currentGames\r\n      delete currentGames[_myid];\r\n      emit ResultEvent(newResult.won, player, newResult.amount, newResult.blockNr, latestNumber);\r\n    }\r\n    emit RandomNumberProduced(latestNumber);\r\n  }\r\n\r\n  function update(address sender,bool head ,uint value, bool won, uint256 blockNr) payable public{\r\n    uint256 QUERY_EXECUTION_DELAY = 0;\r\n    uint256 GAS_FOR_CALLBACK = 200000;\r\n    //get ready for mapping\r\n    Result memory newResult;\r\n    newResult.amount =value;\r\n    newResult.won = won;\r\n    newResult.blockNr = blockNr;\r\n    Bet memory newBet;\r\n    newBet.bet = head;\r\n    newBet.owner = sender;\r\n    newBet.result = newResult;\r\n\r\n    bytes32 queryId = provable_newRandomDSQuery(\r\n      QUERY_EXECUTION_DELAY,\r\n      NUM_OF_RANDOM_BYTES,\r\n      GAS_FOR_CALLBACK\r\n    );\r\n    currentGames[queryId] = newBet;\r\n    emit LogNewProvableQuery(\" -- Waiting for reply ... \");\r\n  }\r\n\r\n\r\n  constructor() public{\r\n      owner = msg.sender;\r\n  }\r\n\r\n  modifier onlyOwner(){\r\n        require(msg.sender == owner);\r\n        _; //Continue execution\r\n    }\r\n\r\n  modifier costs(uint cost){\r\n      require(msg.value >= cost);\r\n      _;\r\n  }\r\n/*\r\n  function coinflip(string memory sender,bool head, uint value, bool won, uint256 blockNr) private {\r\n    if(now % 2 == 1){\r\n      return true;\r\n    } else {\r\n      return false;\r\n    }\r\n  }\r\n*/\r\n  function getBalance() public view returns(uint amount){\r\n    return address(this).balance;\r\n  }\r\n\r\n  function bet(bool head) public payable costs(0.001 ether){\r\n    require(balance >= msg.value, \"Not enough ETH in contract to make that bet\");\r\n    balance += msg.value;\r\n    update(msg.sender,head , msg.value, false, block.number);\r\n\r\n    /*\r\n    newResult.head = flip;\r\n    if ((flip && head) || (!flip && !head)){\r\n      //if win\r\n      newResult.won = true;\r\n      results[msg.sender] = newResult;\r\n      uint toTransfer = msg.value*2;\r\n      balance = balance - toTransfer;\r\n      msg.sender.transfer(toTransfer);\r\n      assert(balance == oldBalance - msg.value);\r\n      emit ResultEvent(newResult.won, msg.sender, msg.value, newResult.blockNr, flip);\r\n    } else {\r\n      //if lost\r\n      results[msg.sender] = newResult;\r\n      emit ResultEvent(newResult.won, msg.sender, msg.value, newResult.blockNr, flip);\r\n    }*/\r\n\r\n  }\r\n\r\n  function lookUp() public view returns(bool result, uint amount, uint256 blockNr, bool head){\r\n    Result memory res;\r\n    res = results[msg.sender];\r\n    return (res.won, res.amount, res.blockNr, res.head);\r\n  }\r\n\r\n  function fillContract() public payable onlyOwner{\r\n    balance += msg.value;\r\n  }\r\n\r\n\r\n\r\n}\r\n",
  "sourcePath": "C:/ETHcontracts/Coinflip projekt/Coinflip/contracts/Coinflip.sol",
  "compiler": {
    "name": "solc",
    "version": "0.5.8+commit.23d335f2.Emscripten.clang"
  },
  "schemaVersion": "3.0.16",
  "updatedAt": "2020-10-11T14:21:34.652Z",
  "devdoc": {
    "methods": {
      "__callback(bytes32,string)": {
        "details": "The following `__callback` functions are just placeholders ideally\r     meant to be defined in child contract when proofs are used.\r     The function bodies simply silence compiler warnings.\r"
      }
    }
  },
  "userdoc": {
    "methods": {}
  }
}